{
  "_format": "hh-sol-artifact-1",
  "contractName": "NFTMarketplace",
  "sourceName": "contracts/NFTMarketplace.sol",
  "abi": [
    {
      "inputs": [],
      "stateMutability": "nonpayable",
      "type": "constructor"
    },
    {
      "stateMutability": "payable",
      "type": "fallback"
    },
    {
      "inputs": [
        {
          "internalType": "uint256",
          "name": "id",
          "type": "uint256"
        }
      ],
      "name": "buy",
      "outputs": [],
      "stateMutability": "payable",
      "type": "function"
    },
    {
      "inputs": [],
      "name": "decimals",
      "outputs": [
        {
          "internalType": "uint8",
          "name": "",
          "type": "uint8"
        }
      ],
      "stateMutability": "pure",
      "type": "function"
    },
    {
      "inputs": [
        {
          "internalType": "address",
          "name": "_owner",
          "type": "address"
        }
      ],
      "name": "getBalanceOf",
      "outputs": [
        {
          "internalType": "uint256",
          "name": "",
          "type": "uint256"
        }
      ],
      "stateMutability": "view",
      "type": "function"
    },
    {
      "inputs": [
        {
          "internalType": "uint256",
          "name": "id",
          "type": "uint256"
        }
      ],
      "name": "getItem",
      "outputs": [
        {
          "components": [
            {
              "internalType": "uint256",
              "name": "nftId",
              "type": "uint256"
            },
            {
              "internalType": "uint256",
              "name": "price",
              "type": "uint256"
            },
            {
              "internalType": "address",
              "name": "seller",
              "type": "address"
            },
            {
              "internalType": "address",
              "name": "buyer",
              "type": "address"
            },
            {
              "internalType": "address",
              "name": "contractAddress",
              "type": "address"
            },
            {
              "internalType": "bool",
              "name": "sold",
              "type": "bool"
            }
          ],
          "internalType": "struct NFTMarketplace.MarketplaceItem",
          "name": "",
          "type": "tuple"
        }
      ],
      "stateMutability": "view",
      "type": "function"
    },
    {
      "inputs": [],
      "name": "getName",
      "outputs": [
        {
          "internalType": "string",
          "name": "",
          "type": "string"
        }
      ],
      "stateMutability": "view",
      "type": "function"
    },
    {
      "inputs": [
        {
          "internalType": "uint256",
          "name": "tokenId",
          "type": "uint256"
        }
      ],
      "name": "getOwnerOf",
      "outputs": [
        {
          "internalType": "address",
          "name": "",
          "type": "address"
        }
      ],
      "stateMutability": "view",
      "type": "function"
    },
    {
      "inputs": [
        {
          "internalType": "uint256",
          "name": "id",
          "type": "uint256"
        }
      ],
      "name": "getPrice",
      "outputs": [
        {
          "internalType": "uint256",
          "name": "",
          "type": "uint256"
        }
      ],
      "stateMutability": "view",
      "type": "function"
    },
    {
      "inputs": [],
      "name": "getSymbol",
      "outputs": [
        {
          "internalType": "string",
          "name": "",
          "type": "string"
        }
      ],
      "stateMutability": "view",
      "type": "function"
    },
    {
      "inputs": [],
      "name": "getTokenAddress",
      "outputs": [
        {
          "internalType": "address",
          "name": "",
          "type": "address"
        }
      ],
      "stateMutability": "view",
      "type": "function"
    },
    {
      "inputs": [
        {
          "internalType": "uint256",
          "name": "tokenId",
          "type": "uint256"
        }
      ],
      "name": "getTokenURI",
      "outputs": [
        {
          "internalType": "string",
          "name": "",
          "type": "string"
        }
      ],
      "stateMutability": "view",
      "type": "function"
    },
    {
      "inputs": [],
      "name": "getUnsoldItems",
      "outputs": [
        {
          "internalType": "uint256[]",
          "name": "",
          "type": "uint256[]"
        }
      ],
      "stateMutability": "view",
      "type": "function"
    },
    {
      "inputs": [
        {
          "internalType": "address",
          "name": "user",
          "type": "address"
        }
      ],
      "name": "getUserItems",
      "outputs": [
        {
          "internalType": "uint256[]",
          "name": "",
          "type": "uint256[]"
        }
      ],
      "stateMutability": "view",
      "type": "function"
    },
    {
      "inputs": [
        {
          "internalType": "uint256",
          "name": "price",
          "type": "uint256"
        },
        {
          "internalType": "string",
          "name": "uri",
          "type": "string"
        }
      ],
      "name": "mintToken",
      "outputs": [],
      "stateMutability": "nonpayable",
      "type": "function"
    },
    {
      "inputs": [
        {
          "internalType": "address",
          "name": "operator",
          "type": "address"
        },
        {
          "internalType": "address",
          "name": "from",
          "type": "address"
        },
        {
          "internalType": "uint256",
          "name": "tokenId",
          "type": "uint256"
        },
        {
          "internalType": "bytes",
          "name": "data",
          "type": "bytes"
        }
      ],
      "name": "onERC721Received",
      "outputs": [
        {
          "internalType": "bytes4",
          "name": "",
          "type": "bytes4"
        }
      ],
      "stateMutability": "pure",
      "type": "function"
    },
    {
      "inputs": [
        {
          "internalType": "bytes4",
          "name": "interfaceID",
          "type": "bytes4"
        }
      ],
      "name": "supportsInterface",
      "outputs": [
        {
          "internalType": "bool",
          "name": "",
          "type": "bool"
        }
      ],
      "stateMutability": "pure",
      "type": "function"
    },
    {
      "inputs": [],
      "name": "withdraw",
      "outputs": [],
      "stateMutability": "nonpayable",
      "type": "function"
    },
    {
      "stateMutability": "payable",
      "type": "receive"
    }
  ],
  "bytecode": "0x608060405266038d7ea4c680006003553480156200001c57600080fd5b50306040516200002c90620000dd565b62000038919062000130565b604051809103906000f08015801562000055573d6000803e3d6000fd5b50600160006101000a81548173ffffffffffffffffffffffffffffffffffffffff021916908373ffffffffffffffffffffffffffffffffffffffff16021790555033600260006101000a81548173ffffffffffffffffffffffffffffffffffffffff021916908373ffffffffffffffffffffffffffffffffffffffff1602179055506200014d565b613402806200212583390190565b600073ffffffffffffffffffffffffffffffffffffffff82169050919050565b60006200011882620000eb565b9050919050565b6200012a816200010b565b82525050565b60006020820190506200014760008301846200011f565b92915050565b611fc8806200015d6000396000f3fe6080604052600436106100f75760003560e01c80633ccfd60b1161008a5780639b96eece116100595780639b96eece14610348578063ce6019b414610385578063d96a094a146103c2578063e7572230146103de576100fe565b80633ccfd60b146102a0578063752312a9146102b757806383638710146102e05780639b8bc1271461031d576100fe565b806317d7de7c116100c657806317d7de7c146101d05780633129e773146101fb578063313ce567146102385780633bb3a24d14610263576100fe565b806301ffc9a71461010057806310fe9ae81461013d5780631507040114610168578063150b7a0214610193576100fe565b366100fe57005b005b34801561010c57600080fd5b50610127600480360381019061012291906113e9565b61041b565b6040516101349190611431565b60405180910390f35b34801561014957600080fd5b50610152610485565b60405161015f919061148d565b60405180910390f35b34801561017457600080fd5b5061017d6104af565b60405161018a9190611538565b60405180910390f35b34801561019f57600080fd5b506101ba60048036038101906101b59190611621565b61054c565b6040516101c791906116b8565b60405180910390f35b3480156101dc57600080fd5b506101e5610561565b6040516101f29190611538565b60405180910390f35b34801561020757600080fd5b50610222600480360381019061021d91906116d3565b6105fe565b60405161022f91906117a8565b60405180910390f35b34801561024457600080fd5b5061024d61075c565b60405161025a91906117df565b60405180910390f35b34801561026f57600080fd5b5061028a600480360381019061028591906116d3565b610765565b6040516102979190611538565b60405180910390f35b3480156102ac57600080fd5b506102b561080f565b005b3480156102c357600080fd5b506102de60048036038101906102d9919061192a565b6108f2565b005b3480156102ec57600080fd5b50610307600480360381019061030291906116d3565b610b8c565b604051610314919061148d565b60405180910390f35b34801561032957600080fd5b50610332610c31565b60405161033f9190611a35565b60405180910390f35b34801561035457600080fd5b5061036f600480360381019061036a9190611a57565b610dac565b60405161037c9190611a93565b60405180910390f35b34801561039157600080fd5b506103ac60048036038101906103a79190611a57565b610e51565b6040516103b99190611a35565b60405180910390f35b6103dc60048036038101906103d791906116d3565b611074565b005b3480156103ea57600080fd5b50610405600480360381019061040091906116d3565b6112bf565b6040516104129190611a93565b60405180910390f35b60007f80ac58cd000000000000000000000000000000000000000000000000000000007bffffffffffffffffffffffffffffffffffffffffffffffffffffffff1916827bffffffffffffffffffffffffffffffffffffffffffffffffffffffff1916149050919050565b6000600160009054906101000a900473ffffffffffffffffffffffffffffffffffffffff16905090565b6060600160009054906101000a900473ffffffffffffffffffffffffffffffffffffffff1673ffffffffffffffffffffffffffffffffffffffff166395d89b416040518163ffffffff1660e01b8152600401600060405180830381865afa15801561051e573d6000803e3d6000fd5b505050506040513d6000823e3d601f19601f820116820180604052508101906105479190611b1e565b905090565b600063150b7a0260e01b905095945050505050565b6060600160009054906101000a900473ffffffffffffffffffffffffffffffffffffffff1673ffffffffffffffffffffffffffffffffffffffff166306fdde036040518163ffffffff1660e01b8152600401600060405180830381865afa1580156105d0573d6000803e3d6000fd5b505050506040513d6000823e3d601f19601f820116820180604052508101906105f99190611b1e565b905090565b610606611303565b600560008381526020019081526020016000206040518060c001604052908160008201548152602001600182015481526020016002820160009054906101000a900473ffffffffffffffffffffffffffffffffffffffff1673ffffffffffffffffffffffffffffffffffffffff1673ffffffffffffffffffffffffffffffffffffffff1681526020016003820160009054906101000a900473ffffffffffffffffffffffffffffffffffffffff1673ffffffffffffffffffffffffffffffffffffffff1673ffffffffffffffffffffffffffffffffffffffff1681526020016004820160009054906101000a900473ffffffffffffffffffffffffffffffffffffffff1673ffffffffffffffffffffffffffffffffffffffff1673ffffffffffffffffffffffffffffffffffffffff1681526020016004820160149054906101000a900460ff1615151515815250509050919050565b60006012905090565b6060600160009054906101000a900473ffffffffffffffffffffffffffffffffffffffff1673ffffffffffffffffffffffffffffffffffffffff1663c87b56dd836040518263ffffffff1660e01b81526004016107c29190611a93565b600060405180830381865afa1580156107df573d6000803e3d6000fd5b505050506040513d6000823e3d601f19601f820116820180604052508101906108089190611b1e565b9050919050565b600260009054906101000a900473ffffffffffffffffffffffffffffffffffffffff1673ffffffffffffffffffffffffffffffffffffffff163373ffffffffffffffffffffffffffffffffffffffff161461089f576040517f08c379a000000000000000000000000000000000000000000000000000000000815260040161089690611bb3565b60405180910390fd5b60006004819055503373ffffffffffffffffffffffffffffffffffffffff166108fc6004549081150290604051600060405180830381858888f193505050501580156108ef573d6000803e3d6000fd5b50565b600354821015610937576040517f08c379a000000000000000000000000000000000000000000000000000000000815260040161092e90611c45565b60405180910390fd5b6000600160009054906101000a900473ffffffffffffffffffffffffffffffffffffffff1673ffffffffffffffffffffffffffffffffffffffff1663d204c45e30846040518363ffffffff1660e01b8152600401610996929190611c65565b6020604051808303816000875af11580156109b5573d6000803e3d6000fd5b505050506040513d601f19601f820116820180604052508101906109d99190611caa565b90506040518060c001604052808281526020018481526020013373ffffffffffffffffffffffffffffffffffffffff168152602001600073ffffffffffffffffffffffffffffffffffffffff168152602001610a33610485565b73ffffffffffffffffffffffffffffffffffffffff1681526020016000151581525060056000610a6360006112df565b8152602001908152602001600020600082015181600001556020820151816001015560408201518160020160006101000a81548173ffffffffffffffffffffffffffffffffffffffff021916908373ffffffffffffffffffffffffffffffffffffffff16021790555060608201518160030160006101000a81548173ffffffffffffffffffffffffffffffffffffffff021916908373ffffffffffffffffffffffffffffffffffffffff16021790555060808201518160040160006101000a81548173ffffffffffffffffffffffffffffffffffffffff021916908373ffffffffffffffffffffffffffffffffffffffff16021790555060a08201518160040160146101000a81548160ff021916908315150217905550905050610b8760006112ed565b505050565b6000600160009054906101000a900473ffffffffffffffffffffffffffffffffffffffff1673ffffffffffffffffffffffffffffffffffffffff16636352211e836040518263ffffffff1660e01b8152600401610be99190611a93565b602060405180830381865afa158015610c06573d6000803e3d6000fd5b505050506040513d601f19601f82011682018060405250810190610c2a9190611cec565b9050919050565b6060600080610c4060006112df565b67ffffffffffffffff811115610c5957610c586117ff565b5b604051908082528060200260200182016040528015610c875781602001602082028036833780820191505090505b50905060005b610c9760006112df565b811015610d02576005600082815260200190815260200160002060040160149054906101000a900460ff16610cf55780828481518110610cda57610cd9611d19565b5b6020026020010181815250508280610cf190611d77565b9350505b8080600101915050610c8d565b5060008267ffffffffffffffff811115610d1f57610d1e6117ff565b5b604051908082528060200260200182016040528015610d4d5781602001602082028036833780820191505090505b50905060005b83811015610da257828181518110610d6e57610d6d611d19565b5b6020026020010151828281518110610d8957610d88611d19565b5b6020026020010181815250508080600101915050610d53565b5080935050505090565b6000600160009054906101000a900473ffffffffffffffffffffffffffffffffffffffff1673ffffffffffffffffffffffffffffffffffffffff166370a08231836040518263ffffffff1660e01b8152600401610e09919061148d565b602060405180830381865afa158015610e26573d6000803e3d6000fd5b505050506040513d601f19601f82011682018060405250810190610e4a9190611caa565b9050919050565b6060600080610e6060006112df565b67ffffffffffffffff811115610e7957610e786117ff565b5b604051908082528060200260200182016040528015610ea75781602001602082028036833780820191505090505b50905060005b610eb760006112df565b811015610fc8578473ffffffffffffffffffffffffffffffffffffffff16600160009054906101000a900473ffffffffffffffffffffffffffffffffffffffff1673ffffffffffffffffffffffffffffffffffffffff16636352211e836040518263ffffffff1660e01b8152600401610f309190611a93565b602060405180830381865afa158015610f4d573d6000803e3d6000fd5b505050506040513d601f19601f82011682018060405250810190610f719190611cec565b73ffffffffffffffffffffffffffffffffffffffff1603610fbb5780828481518110610fa057610f9f611d19565b5b6020026020010181815250508280610fb790611d77565b9350505b8080600101915050610ead565b5060008267ffffffffffffffff811115610fe557610fe46117ff565b5b6040519080825280602002602001820160405280156110135781602001602082028036833780820191505090505b50905060005b838110156110685782818151811061103457611033611d19565b5b602002602001015182828151811061104f5761104e611d19565b5b6020026020010181815250508080600101915050611019565b50809350505050919050565b600560008281526020019081526020016000206001015434146110cc576040517f08c379a00000000000000000000000000000000000000000000000000000000081526004016110c390611e31565b60405180910390fd5b336005600083815260200190815260200160002060030160006101000a81548173ffffffffffffffffffffffffffffffffffffffff021916908373ffffffffffffffffffffffffffffffffffffffff16021790555060016005600083815260200190815260200160002060040160146101000a81548160ff021916908315150217905550600060646005346111619190611e51565b61116b9190611ec2565b90506000813461117b9190611ef3565b9050816004600082825461118f9190611f27565b925050819055506005600084815260200190815260200160002060020160009054906101000a900473ffffffffffffffffffffffffffffffffffffffff1673ffffffffffffffffffffffffffffffffffffffff166108fc829081150290604051600060405180830381858888f19350505050158015611212573d6000803e3d6000fd5b50600160009054906101000a900473ffffffffffffffffffffffffffffffffffffffff1673ffffffffffffffffffffffffffffffffffffffff166323b872dd303360056000888152602001908152602001600020600001546040518463ffffffff1660e01b815260040161128893929190611f5b565b600060405180830381600087803b1580156112a257600080fd5b505af11580156112b6573d6000803e3d6000fd5b50505050505050565b600060056000838152602001908152602001600020600101549050919050565b600081600001549050919050565b6001816000016000828254019250508190555050565b6040518060c001604052806000815260200160008152602001600073ffffffffffffffffffffffffffffffffffffffff168152602001600073ffffffffffffffffffffffffffffffffffffffff168152602001600073ffffffffffffffffffffffffffffffffffffffff1681526020016000151581525090565b6000604051905090565b600080fd5b600080fd5b60007fffffffff0000000000000000000000000000000000000000000000000000000082169050919050565b6113c681611391565b81146113d157600080fd5b50565b6000813590506113e3816113bd565b92915050565b6000602082840312156113ff576113fe611387565b5b600061140d848285016113d4565b91505092915050565b60008115159050919050565b61142b81611416565b82525050565b60006020820190506114466000830184611422565b92915050565b600073ffffffffffffffffffffffffffffffffffffffff82169050919050565b60006114778261144c565b9050919050565b6114878161146c565b82525050565b60006020820190506114a2600083018461147e565b92915050565b600081519050919050565b600082825260208201905092915050565b60005b838110156114e25780820151818401526020810190506114c7565b60008484015250505050565b6000601f19601f8301169050919050565b600061150a826114a8565b61151481856114b3565b93506115248185602086016114c4565b61152d816114ee565b840191505092915050565b6000602082019050818103600083015261155281846114ff565b905092915050565b6115638161146c565b811461156e57600080fd5b50565b6000813590506115808161155a565b92915050565b6000819050919050565b61159981611586565b81146115a457600080fd5b50565b6000813590506115b681611590565b92915050565b600080fd5b600080fd5b600080fd5b60008083601f8401126115e1576115e06115bc565b5b8235905067ffffffffffffffff8111156115fe576115fd6115c1565b5b60208301915083600182028301111561161a576116196115c6565b5b9250929050565b60008060008060006080868803121561163d5761163c611387565b5b600061164b88828901611571565b955050602061165c88828901611571565b945050604061166d888289016115a7565b935050606086013567ffffffffffffffff81111561168e5761168d61138c565b5b61169a888289016115cb565b92509250509295509295909350565b6116b281611391565b82525050565b60006020820190506116cd60008301846116a9565b92915050565b6000602082840312156116e9576116e8611387565b5b60006116f7848285016115a7565b91505092915050565b61170981611586565b82525050565b6117188161146c565b82525050565b61172781611416565b82525050565b60c0820160008201516117436000850182611700565b5060208201516117566020850182611700565b506040820151611769604085018261170f565b50606082015161177c606085018261170f565b50608082015161178f608085018261170f565b5060a08201516117a260a085018261171e565b50505050565b600060c0820190506117bd600083018461172d565b92915050565b600060ff82169050919050565b6117d9816117c3565b82525050565b60006020820190506117f460008301846117d0565b92915050565b600080fd5b7f4e487b7100000000000000000000000000000000000000000000000000000000600052604160045260246000fd5b611837826114ee565b810181811067ffffffffffffffff82111715611856576118556117ff565b5b80604052505050565b600061186961137d565b9050611875828261182e565b919050565b600067ffffffffffffffff821115611895576118946117ff565b5b61189e826114ee565b9050602081019050919050565b82818337600083830152505050565b60006118cd6118c88461187a565b61185f565b9050828152602081018484840111156118e9576118e86117fa565b5b6118f48482856118ab565b509392505050565b600082601f830112611911576119106115bc565b5b81356119218482602086016118ba565b91505092915050565b6000806040838503121561194157611940611387565b5b600061194f858286016115a7565b925050602083013567ffffffffffffffff8111156119705761196f61138c565b5b61197c858286016118fc565b9150509250929050565b600081519050919050565b600082825260208201905092915050565b6000819050602082019050919050565b60006119be8383611700565b60208301905092915050565b6000602082019050919050565b60006119e282611986565b6119ec8185611991565b93506119f7836119a2565b8060005b83811015611a28578151611a0f88826119b2565b9750611a1a836119ca565b9250506001810190506119fb565b5085935050505092915050565b60006020820190508181036000830152611a4f81846119d7565b905092915050565b600060208284031215611a6d57611a6c611387565b5b6000611a7b84828501611571565b91505092915050565b611a8d81611586565b82525050565b6000602082019050611aa86000830184611a84565b92915050565b6000611ac1611abc8461187a565b61185f565b905082815260208101848484011115611add57611adc6117fa565b5b611ae88482856114c4565b509392505050565b600082601f830112611b0557611b046115bc565b5b8151611b15848260208601611aae565b91505092915050565b600060208284031215611b3457611b33611387565b5b600082015167ffffffffffffffff811115611b5257611b5161138c565b5b611b5e84828501611af0565b91505092915050565b7f596f7520617265206e6f7420616e206f776e6572000000000000000000000000600082015250565b6000611b9d6014836114b3565b9150611ba882611b67565b602082019050919050565b60006020820190508181036000830152611bcc81611b90565b9050919050565b7f546865207072696365206d7573742062652067726561746572207468616e207460008201527f6865206d696e696d756d507269636520302e3030312065746865720000000000602082015250565b6000611c2f603b836114b3565b9150611c3a82611bd3565b604082019050919050565b60006020820190508181036000830152611c5e81611c22565b9050919050565b6000604082019050611c7a600083018561147e565b8181036020830152611c8c81846114ff565b90509392505050565b600081519050611ca481611590565b92915050565b600060208284031215611cc057611cbf611387565b5b6000611cce84828501611c95565b91505092915050565b600081519050611ce68161155a565b92915050565b600060208284031215611d0257611d01611387565b5b6000611d1084828501611cd7565b91505092915050565b7f4e487b7100000000000000000000000000000000000000000000000000000000600052603260045260246000fd5b7f4e487b7100000000000000000000000000000000000000000000000000000000600052601160045260246000fd5b6000611d8282611586565b91507fffffffffffffffffffffffffffffffffffffffffffffffffffffffffffffffff8203611db457611db3611d48565b5b600182019050919050565b7f5072696365206d75737420626520657175616c20746f206c697374696e67207060008201527f7269636500000000000000000000000000000000000000000000000000000000602082015250565b6000611e1b6024836114b3565b9150611e2682611dbf565b604082019050919050565b60006020820190508181036000830152611e4a81611e0e565b9050919050565b6000611e5c82611586565b9150611e6783611586565b9250828202611e7581611586565b91508282048414831517611e8c57611e8b611d48565b5b5092915050565b7f4e487b7100000000000000000000000000000000000000000000000000000000600052601260045260246000fd5b6000611ecd82611586565b9150611ed883611586565b925082611ee857611ee7611e93565b5b828204905092915050565b6000611efe82611586565b9150611f0983611586565b9250828203905081811115611f2157611f20611d48565b5b92915050565b6000611f3282611586565b9150611f3d83611586565b9250828201905080821115611f5557611f54611d48565b5b92915050565b6000606082019050611f70600083018661147e565b611f7d602083018561147e565b611f8a6040830184611a84565b94935050505056fea2646970667358221220d6a3ad5e5d5706c9449a44a9bc696e699393496dba7c9552b4f5e51aff99601664736f6c6343000818003360806040523480156200001157600080fd5b506040516200340238038062003402833981810160405281019062000037919062000288565b806040518060400160405280600781526020017f4d79546f6b656e000000000000000000000000000000000000000000000000008152506040518060400160405280600381526020017f4d544b00000000000000000000000000000000000000000000000000000000008152508160009081620000b5919062000534565b508060019081620000c7919062000534565b505050600073ffffffffffffffffffffffffffffffffffffffff168173ffffffffffffffffffffffffffffffffffffffff16036200013f5760006040517f1e4fbdf70000000000000000000000000000000000000000000000000000000081526004016200013691906200062c565b60405180910390fd5b62000150816200015860201b60201c565b505062000649565b6000600b60009054906101000a900473ffffffffffffffffffffffffffffffffffffffff16905081600b60006101000a81548173ffffffffffffffffffffffffffffffffffffffff021916908373ffffffffffffffffffffffffffffffffffffffff1602179055508173ffffffffffffffffffffffffffffffffffffffff168173ffffffffffffffffffffffffffffffffffffffff167f8be0079c531659141344cd1fd0a4f28419497f9722a3daafe3b4186f6b6457e060405160405180910390a35050565b600080fd5b600073ffffffffffffffffffffffffffffffffffffffff82169050919050565b6000620002508262000223565b9050919050565b620002628162000243565b81146200026e57600080fd5b50565b600081519050620002828162000257565b92915050565b600060208284031215620002a157620002a06200021e565b5b6000620002b18482850162000271565b91505092915050565b600081519050919050565b7f4e487b7100000000000000000000000000000000000000000000000000000000600052604160045260246000fd5b7f4e487b7100000000000000000000000000000000000000000000000000000000600052602260045260246000fd5b600060028204905060018216806200033c57607f821691505b602082108103620003525762000351620002f4565b5b50919050565b60008190508160005260206000209050919050565b60006020601f8301049050919050565b600082821b905092915050565b600060088302620003bc7fffffffffffffffffffffffffffffffffffffffffffffffffffffffffffffffff826200037d565b620003c886836200037d565b95508019841693508086168417925050509392505050565b6000819050919050565b6000819050919050565b6000620004156200040f6200040984620003e0565b620003ea565b620003e0565b9050919050565b6000819050919050565b6200043183620003f4565b6200044962000440826200041c565b8484546200038a565b825550505050565b600090565b6200046062000451565b6200046d81848462000426565b505050565b5b8181101562000495576200048960008262000456565b60018101905062000473565b5050565b601f821115620004e457620004ae8162000358565b620004b9846200036d565b81016020851015620004c9578190505b620004e1620004d8856200036d565b83018262000472565b50505b505050565b600082821c905092915050565b60006200050960001984600802620004e9565b1980831691505092915050565b6000620005248383620004f6565b9150826002028217905092915050565b6200053f82620002ba565b67ffffffffffffffff8111156200055b576200055a620002c5565b5b62000567825462000323565b6200057482828562000499565b600060209050601f831160018114620005ac576000841562000597578287015190505b620005a3858262000516565b86555062000613565b601f198416620005bc8662000358565b60005b82811015620005e657848901518255600182019150602085019450602081019050620005bf565b8683101562000606578489015162000602601f891682620004f6565b8355505b6001600288020188555050505b505050505050565b620006268162000243565b82525050565b60006020820190506200064360008301846200061b565b92915050565b612da980620006596000396000f3fe608060405234801561001057600080fd5b506004361061012c5760003560e01c806370a08231116100ad578063b88d4fde11610071578063b88d4fde14610343578063c87b56dd1461035f578063d204c45e1461038f578063e985e9c5146103bf578063f2fde38b146103ef5761012c565b806370a08231146102b1578063715018a6146102e15780638da5cb5b146102eb57806395d89b4114610309578063a22cb465146103275761012c565b806323b872dd116100f457806323b872dd146101e95780632f745c591461020557806342842e0e146102355780634f6ccce7146102515780636352211e146102815761012c565b806301ffc9a71461013157806306fdde0314610161578063081812fc1461017f578063095ea7b3146101af57806318160ddd146101cb575b600080fd5b61014b6004803603810190610146919061216f565b61040b565b60405161015891906121b7565b60405180910390f35b61016961041d565b6040516101769190612262565b60405180910390f35b610199600480360381019061019491906122ba565b6104af565b6040516101a69190612328565b60405180910390f35b6101c960048036038101906101c4919061236f565b6104cb565b005b6101d36104e1565b6040516101e091906123be565b60405180910390f35b61020360048036038101906101fe91906123d9565b6104ee565b005b61021f600480360381019061021a919061236f565b6105f0565b60405161022c91906123be565b60405180910390f35b61024f600480360381019061024a91906123d9565b610699565b005b61026b600480360381019061026691906122ba565b6106b9565b60405161027891906123be565b60405180910390f35b61029b600480360381019061029691906122ba565b61072f565b6040516102a89190612328565b60405180910390f35b6102cb60048036038101906102c6919061242c565b610741565b6040516102d891906123be565b60405180910390f35b6102e96107fb565b005b6102f361080f565b6040516103009190612328565b60405180910390f35b610311610839565b60405161031e9190612262565b60405180910390f35b610341600480360381019061033c9190612485565b6108cb565b005b61035d600480360381019061035891906125fa565b6108e1565b005b610379600480360381019061037491906122ba565b6108fe565b6040516103869190612262565b60405180910390f35b6103a960048036038101906103a4919061271e565b610910565b6040516103b691906123be565b60405180910390f35b6103d960048036038101906103d4919061277a565b610953565b6040516103e691906121b7565b60405180910390f35b6104096004803603810190610404919061242c565b6109e7565b005b600061041682610a6d565b9050919050565b60606000805461042c906127e9565b80601f0160208091040260200160405190810160405280929190818152602001828054610458906127e9565b80156104a55780601f1061047a576101008083540402835291602001916104a5565b820191906000526020600020905b81548152906001019060200180831161048857829003601f168201915b5050505050905090565b60006104ba82610ace565b506104c482610b56565b9050919050565b6104dd82826104d8610b93565b610b9b565b5050565b6000600880549050905090565b600073ffffffffffffffffffffffffffffffffffffffff168273ffffffffffffffffffffffffffffffffffffffff16036105605760006040517f64a0ae920000000000000000000000000000000000000000000000000000000081526004016105579190612328565b60405180910390fd5b6000610574838361056f610b93565b610bad565b90508373ffffffffffffffffffffffffffffffffffffffff168173ffffffffffffffffffffffffffffffffffffffff16146105ea578382826040517f64283d7b0000000000000000000000000000000000000000000000000000000081526004016105e19392919061281a565b60405180910390fd5b50505050565b60006105fb83610741565b82106106405782826040517fa57d13dc000000000000000000000000000000000000000000000000000000008152600401610637929190612851565b60405180910390fd5b600660008473ffffffffffffffffffffffffffffffffffffffff1673ffffffffffffffffffffffffffffffffffffffff168152602001908152602001600020600083815260200190815260200160002054905092915050565b6106b4838383604051806020016040528060008152506108e1565b505050565b60006106c36104e1565b8210610709576000826040517fa57d13dc000000000000000000000000000000000000000000000000000000008152600401610700929190612851565b60405180910390fd5b6008828154811061071d5761071c61287a565b5b90600052602060002001549050919050565b600061073a82610ace565b9050919050565b60008073ffffffffffffffffffffffffffffffffffffffff168273ffffffffffffffffffffffffffffffffffffffff16036107b45760006040517f89c62b640000000000000000000000000000000000000000000000000000000081526004016107ab9190612328565b60405180910390fd5b600360008373ffffffffffffffffffffffffffffffffffffffff1673ffffffffffffffffffffffffffffffffffffffff168152602001908152602001600020549050919050565b610803610bc3565b61080d6000610c4a565b565b6000600b60009054906101000a900473ffffffffffffffffffffffffffffffffffffffff16905090565b606060018054610848906127e9565b80601f0160208091040260200160405190810160405280929190818152602001828054610874906127e9565b80156108c15780601f10610896576101008083540402835291602001916108c1565b820191906000526020600020905b8154815290600101906020018083116108a457829003601f168201915b5050505050905090565b6108dd6108d6610b93565b8383610d10565b5050565b6108ec8484846104ee565b6108f884848484610e7f565b50505050565b606061090982611036565b9050919050565b600061091a610bc3565b6000600c600081548092919061092f906128d8565b91905055905061093f8482611149565b6109498184611167565b8091505092915050565b6000600560008473ffffffffffffffffffffffffffffffffffffffff1673ffffffffffffffffffffffffffffffffffffffff16815260200190815260200160002060008373ffffffffffffffffffffffffffffffffffffffff1673ffffffffffffffffffffffffffffffffffffffff16815260200190815260200160002060009054906101000a900460ff16905092915050565b6109ef610bc3565b600073ffffffffffffffffffffffffffffffffffffffff168173ffffffffffffffffffffffffffffffffffffffff1603610a615760006040517f1e4fbdf7000000000000000000000000000000000000000000000000000000008152600401610a589190612328565b60405180910390fd5b610a6a81610c4a565b50565b6000634906490660e01b7bffffffffffffffffffffffffffffffffffffffffffffffffffffffff1916827bffffffffffffffffffffffffffffffffffffffffffffffffffffffff19161480610ac75750610ac6826111c3565b5b9050919050565b600080610ada8361123d565b9050600073ffffffffffffffffffffffffffffffffffffffff168173ffffffffffffffffffffffffffffffffffffffff1603610b4d57826040517f7e273289000000000000000000000000000000000000000000000000000000008152600401610b4491906123be565b60405180910390fd5b80915050919050565b60006004600083815260200190815260200160002060009054906101000a900473ffffffffffffffffffffffffffffffffffffffff169050919050565b600033905090565b610ba8838383600161127a565b505050565b6000610bba84848461143f565b90509392505050565b610bcb610b93565b73ffffffffffffffffffffffffffffffffffffffff16610be961080f565b73ffffffffffffffffffffffffffffffffffffffff1614610c4857610c0c610b93565b6040517f118cdaa7000000000000000000000000000000000000000000000000000000008152600401610c3f9190612328565b60405180910390fd5b565b6000600b60009054906101000a900473ffffffffffffffffffffffffffffffffffffffff16905081600b60006101000a81548173ffffffffffffffffffffffffffffffffffffffff021916908373ffffffffffffffffffffffffffffffffffffffff1602179055508173ffffffffffffffffffffffffffffffffffffffff168173ffffffffffffffffffffffffffffffffffffffff167f8be0079c531659141344cd1fd0a4f28419497f9722a3daafe3b4186f6b6457e060405160405180910390a35050565b600073ffffffffffffffffffffffffffffffffffffffff168273ffffffffffffffffffffffffffffffffffffffff1603610d8157816040517f5b08ba18000000000000000000000000000000000000000000000000000000008152600401610d789190612328565b60405180910390fd5b80600560008573ffffffffffffffffffffffffffffffffffffffff1673ffffffffffffffffffffffffffffffffffffffff16815260200190815260200160002060008473ffffffffffffffffffffffffffffffffffffffff1673ffffffffffffffffffffffffffffffffffffffff16815260200190815260200160002060006101000a81548160ff0219169083151502179055508173ffffffffffffffffffffffffffffffffffffffff168373ffffffffffffffffffffffffffffffffffffffff167f17307eab39ab6107e8899845ad3d59bd9653f200f220920489ca2b5937696c3183604051610e7291906121b7565b60405180910390a3505050565b60008373ffffffffffffffffffffffffffffffffffffffff163b1115611030578273ffffffffffffffffffffffffffffffffffffffff1663150b7a02610ec3610b93565b8685856040518563ffffffff1660e01b8152600401610ee59493929190612975565b6020604051808303816000875af1925050508015610f2157506040513d601f19601f82011682018060405250810190610f1e91906129d6565b60015b610fa5573d8060008114610f51576040519150601f19603f3d011682016040523d82523d6000602084013e610f56565b606091505b506000815103610f9d57836040517f64a0ae92000000000000000000000000000000000000000000000000000000008152600401610f949190612328565b60405180910390fd5b805181602001fd5b63150b7a0260e01b7bffffffffffffffffffffffffffffffffffffffffffffffffffffffff1916817bffffffffffffffffffffffffffffffffffffffffffffffffffffffff19161461102e57836040517f64a0ae920000000000000000000000000000000000000000000000000000000081526004016110259190612328565b60405180910390fd5b505b50505050565b606061104182610ace565b506000600a60008481526020019081526020016000208054611062906127e9565b80601f016020809104026020016040519081016040528092919081815260200182805461108e906127e9565b80156110db5780601f106110b0576101008083540402835291602001916110db565b820191906000526020600020905b8154815290600101906020018083116110be57829003601f168201915b5050505050905060006110ec61155c565b90506000815103611101578192505050611144565b60008251111561113657808260405160200161111e929190612a3f565b60405160208183030381529060405292505050611144565b61113f84611573565b925050505b919050565b6111638282604051806020016040528060008152506115dc565b5050565b80600a600084815260200190815260200160002090816111879190612c0f565b507ff8e1a15aba9398e019f0b49df1a4fde98ee17ae345cb5f6b5e2c27f5033e8ce7826040516111b791906123be565b60405180910390a15050565b60007f780e9d63000000000000000000000000000000000000000000000000000000007bffffffffffffffffffffffffffffffffffffffffffffffffffffffff1916827bffffffffffffffffffffffffffffffffffffffffffffffffffffffff191614806112365750611235826115f8565b5b9050919050565b60006002600083815260200190815260200160002060009054906101000a900473ffffffffffffffffffffffffffffffffffffffff169050919050565b80806112b35750600073ffffffffffffffffffffffffffffffffffffffff168273ffffffffffffffffffffffffffffffffffffffff1614155b156113e75760006112c384610ace565b9050600073ffffffffffffffffffffffffffffffffffffffff168373ffffffffffffffffffffffffffffffffffffffff161415801561132e57508273ffffffffffffffffffffffffffffffffffffffff168173ffffffffffffffffffffffffffffffffffffffff1614155b8015611341575061133f8184610953565b155b1561138357826040517fa9fbf51f00000000000000000000000000000000000000000000000000000000815260040161137a9190612328565b60405180910390fd5b81156113e557838573ffffffffffffffffffffffffffffffffffffffff168273ffffffffffffffffffffffffffffffffffffffff167f8c5be1e5ebec7d5bd14f71427d1e84f3dd0314c0f7b2291e5b200ac8c7c3b92560405160405180910390a45b505b836004600085815260200190815260200160002060006101000a81548173ffffffffffffffffffffffffffffffffffffffff021916908373ffffffffffffffffffffffffffffffffffffffff16021790555050505050565b60008061144d8585856116da565b9050600073ffffffffffffffffffffffffffffffffffffffff168173ffffffffffffffffffffffffffffffffffffffff16036114915761148c846118f4565b6114d0565b8473ffffffffffffffffffffffffffffffffffffffff168173ffffffffffffffffffffffffffffffffffffffff16146114cf576114ce818561193d565b5b5b600073ffffffffffffffffffffffffffffffffffffffff168573ffffffffffffffffffffffffffffffffffffffff16036115125761150d84611a9e565b611551565b8473ffffffffffffffffffffffffffffffffffffffff168173ffffffffffffffffffffffffffffffffffffffff16146115505761154f8585611b6f565b5b5b809150509392505050565b606060405180602001604052806000815250905090565b606061157e82610ace565b50600061158961155c565b905060008151116115a957604051806020016040528060008152506115d4565b806115b384611bfa565b6040516020016115c4929190612a3f565b6040516020818303038152906040525b915050919050565b6115e68383611cc8565b6115f36000848484610e7f565b505050565b60007f80ac58cd000000000000000000000000000000000000000000000000000000007bffffffffffffffffffffffffffffffffffffffffffffffffffffffff1916827bffffffffffffffffffffffffffffffffffffffffffffffffffffffff191614806116c357507f5b5e139f000000000000000000000000000000000000000000000000000000007bffffffffffffffffffffffffffffffffffffffffffffffffffffffff1916827bffffffffffffffffffffffffffffffffffffffffffffffffffffffff1916145b806116d357506116d282611dc1565b5b9050919050565b6000806116e68461123d565b9050600073ffffffffffffffffffffffffffffffffffffffff168373ffffffffffffffffffffffffffffffffffffffff161461172857611727818486611e2b565b5b600073ffffffffffffffffffffffffffffffffffffffff168173ffffffffffffffffffffffffffffffffffffffff16146117b95761176a60008560008061127a565b6001600360008373ffffffffffffffffffffffffffffffffffffffff1673ffffffffffffffffffffffffffffffffffffffff168152602001908152602001600020600082825403925050819055505b600073ffffffffffffffffffffffffffffffffffffffff168573ffffffffffffffffffffffffffffffffffffffff161461183c576001600360008773ffffffffffffffffffffffffffffffffffffffff1673ffffffffffffffffffffffffffffffffffffffff168152602001908152602001600020600082825401925050819055505b846002600086815260200190815260200160002060006101000a81548173ffffffffffffffffffffffffffffffffffffffff021916908373ffffffffffffffffffffffffffffffffffffffff160217905550838573ffffffffffffffffffffffffffffffffffffffff168273ffffffffffffffffffffffffffffffffffffffff167fddf252ad1be2c89b69c2b068fc378daa952ba7f163c4a11628f55a4df523b3ef60405160405180910390a4809150509392505050565b6008805490506009600083815260200190815260200160002081905550600881908060018154018082558091505060019003906000526020600020016000909190919091505550565b600061194883610741565b9050600060076000848152602001908152602001600020549050818114611a2d576000600660008673ffffffffffffffffffffffffffffffffffffffff1673ffffffffffffffffffffffffffffffffffffffff168152602001908152602001600020600084815260200190815260200160002054905080600660008773ffffffffffffffffffffffffffffffffffffffff1673ffffffffffffffffffffffffffffffffffffffff168152602001908152602001600020600084815260200190815260200160002081905550816007600083815260200190815260200160002081905550505b6007600084815260200190815260200160002060009055600660008573ffffffffffffffffffffffffffffffffffffffff1673ffffffffffffffffffffffffffffffffffffffff16815260200190815260200160002060008381526020019081526020016000206000905550505050565b60006001600880549050611ab29190612ce1565b9050600060096000848152602001908152602001600020549050600060088381548110611ae257611ae161287a565b5b906000526020600020015490508060088381548110611b0457611b0361287a565b5b906000526020600020018190555081600960008381526020019081526020016000208190555060096000858152602001908152602001600020600090556008805480611b5357611b52612d15565b5b6001900381819060005260206000200160009055905550505050565b60006001611b7c84610741565b611b869190612ce1565b905081600660008573ffffffffffffffffffffffffffffffffffffffff1673ffffffffffffffffffffffffffffffffffffffff168152602001908152602001600020600083815260200190815260200160002081905550806007600084815260200190815260200160002081905550505050565b606060006001611c0984611eef565b01905060008167ffffffffffffffff811115611c2857611c276124cf565b5b6040519080825280601f01601f191660200182016040528015611c5a5781602001600182028036833780820191505090505b509050600082602001820190505b600115611cbd578080600190039150507f3031323334353637383961626364656600000000000000000000000000000000600a86061a8153600a8581611cb157611cb0612d44565b5b04945060008503611c68575b819350505050919050565b600073ffffffffffffffffffffffffffffffffffffffff168273ffffffffffffffffffffffffffffffffffffffff1603611d3a5760006040517f64a0ae92000000000000000000000000000000000000000000000000000000008152600401611d319190612328565b60405180910390fd5b6000611d4883836000610bad565b9050600073ffffffffffffffffffffffffffffffffffffffff168173ffffffffffffffffffffffffffffffffffffffff1614611dbc5760006040517f73c6ac6e000000000000000000000000000000000000000000000000000000008152600401611db39190612328565b60405180910390fd5b505050565b60007f01ffc9a7000000000000000000000000000000000000000000000000000000007bffffffffffffffffffffffffffffffffffffffffffffffffffffffff1916827bffffffffffffffffffffffffffffffffffffffffffffffffffffffff1916149050919050565b611e36838383612042565b611eea57600073ffffffffffffffffffffffffffffffffffffffff168373ffffffffffffffffffffffffffffffffffffffff1603611eab57806040517f7e273289000000000000000000000000000000000000000000000000000000008152600401611ea291906123be565b60405180910390fd5b81816040517f177e802f000000000000000000000000000000000000000000000000000000008152600401611ee1929190612851565b60405180910390fd5b505050565b600080600090507a184f03e93ff9f4daa797ed6e38ed64bf6a1f0100000000000000008310611f4d577a184f03e93ff9f4daa797ed6e38ed64bf6a1f0100000000000000008381611f4357611f42612d44565b5b0492506040810190505b6d04ee2d6d415b85acef81000000008310611f8a576d04ee2d6d415b85acef81000000008381611f8057611f7f612d44565b5b0492506020810190505b662386f26fc100008310611fb957662386f26fc100008381611faf57611fae612d44565b5b0492506010810190505b6305f5e1008310611fe2576305f5e1008381611fd857611fd7612d44565b5b0492506008810190505b6127108310612007576127108381611ffd57611ffc612d44565b5b0492506004810190505b6064831061202a57606483816120205761201f612d44565b5b0492506002810190505b600a8310612039576001810190505b80915050919050565b60008073ffffffffffffffffffffffffffffffffffffffff168373ffffffffffffffffffffffffffffffffffffffff16141580156120fa57508273ffffffffffffffffffffffffffffffffffffffff168473ffffffffffffffffffffffffffffffffffffffff1614806120bb57506120ba8484610953565b5b806120f957508273ffffffffffffffffffffffffffffffffffffffff166120e183610b56565b73ffffffffffffffffffffffffffffffffffffffff16145b5b90509392505050565b6000604051905090565b600080fd5b600080fd5b60007fffffffff0000000000000000000000000000000000000000000000000000000082169050919050565b61214c81612117565b811461215757600080fd5b50565b60008135905061216981612143565b92915050565b6000602082840312156121855761218461210d565b5b60006121938482850161215a565b91505092915050565b60008115159050919050565b6121b18161219c565b82525050565b60006020820190506121cc60008301846121a8565b92915050565b600081519050919050565b600082825260208201905092915050565b60005b8381101561220c5780820151818401526020810190506121f1565b60008484015250505050565b6000601f19601f8301169050919050565b6000612234826121d2565b61223e81856121dd565b935061224e8185602086016121ee565b61225781612218565b840191505092915050565b6000602082019050818103600083015261227c8184612229565b905092915050565b6000819050919050565b61229781612284565b81146122a257600080fd5b50565b6000813590506122b48161228e565b92915050565b6000602082840312156122d0576122cf61210d565b5b60006122de848285016122a5565b91505092915050565b600073ffffffffffffffffffffffffffffffffffffffff82169050919050565b6000612312826122e7565b9050919050565b61232281612307565b82525050565b600060208201905061233d6000830184612319565b92915050565b61234c81612307565b811461235757600080fd5b50565b60008135905061236981612343565b92915050565b600080604083850312156123865761238561210d565b5b60006123948582860161235a565b92505060206123a5858286016122a5565b9150509250929050565b6123b881612284565b82525050565b60006020820190506123d360008301846123af565b92915050565b6000806000606084860312156123f2576123f161210d565b5b60006124008682870161235a565b93505060206124118682870161235a565b9250506040612422868287016122a5565b9150509250925092565b6000602082840312156124425761244161210d565b5b60006124508482850161235a565b91505092915050565b6124628161219c565b811461246d57600080fd5b50565b60008135905061247f81612459565b92915050565b6000806040838503121561249c5761249b61210d565b5b60006124aa8582860161235a565b92505060206124bb85828601612470565b9150509250929050565b600080fd5b600080fd5b7f4e487b7100000000000000000000000000000000000000000000000000000000600052604160045260246000fd5b61250782612218565b810181811067ffffffffffffffff82111715612526576125256124cf565b5b80604052505050565b6000612539612103565b905061254582826124fe565b919050565b600067ffffffffffffffff821115612565576125646124cf565b5b61256e82612218565b9050602081019050919050565b82818337600083830152505050565b600061259d6125988461254a565b61252f565b9050828152602081018484840111156125b9576125b86124ca565b5b6125c484828561257b565b509392505050565b600082601f8301126125e1576125e06124c5565b5b81356125f184826020860161258a565b91505092915050565b600080600080608085870312156126145761261361210d565b5b60006126228782880161235a565b94505060206126338782880161235a565b9350506040612644878288016122a5565b925050606085013567ffffffffffffffff81111561266557612664612112565b5b612671878288016125cc565b91505092959194509250565b600067ffffffffffffffff821115612698576126976124cf565b5b6126a182612218565b9050602081019050919050565b60006126c16126bc8461267d565b61252f565b9050828152602081018484840111156126dd576126dc6124ca565b5b6126e884828561257b565b509392505050565b600082601f830112612705576127046124c5565b5b81356127158482602086016126ae565b91505092915050565b600080604083850312156127355761273461210d565b5b60006127438582860161235a565b925050602083013567ffffffffffffffff81111561276457612763612112565b5b612770858286016126f0565b9150509250929050565b600080604083850312156127915761279061210d565b5b600061279f8582860161235a565b92505060206127b08582860161235a565b9150509250929050565b7f4e487b7100000000000000000000000000000000000000000000000000000000600052602260045260246000fd5b6000600282049050600182168061280157607f821691505b602082108103612814576128136127ba565b5b50919050565b600060608201905061282f6000830186612319565b61283c60208301856123af565b6128496040830184612319565b949350505050565b60006040820190506128666000830185612319565b61287360208301846123af565b9392505050565b7f4e487b7100000000000000000000000000000000000000000000000000000000600052603260045260246000fd5b7f4e487b7100000000000000000000000000000000000000000000000000000000600052601160045260246000fd5b60006128e382612284565b91507fffffffffffffffffffffffffffffffffffffffffffffffffffffffffffffffff8203612915576129146128a9565b5b600182019050919050565b600081519050919050565b600082825260208201905092915050565b600061294782612920565b612951818561292b565b93506129618185602086016121ee565b61296a81612218565b840191505092915050565b600060808201905061298a6000830187612319565b6129976020830186612319565b6129a460408301856123af565b81810360608301526129b6818461293c565b905095945050505050565b6000815190506129d081612143565b92915050565b6000602082840312156129ec576129eb61210d565b5b60006129fa848285016129c1565b91505092915050565b600081905092915050565b6000612a19826121d2565b612a238185612a03565b9350612a338185602086016121ee565b80840191505092915050565b6000612a4b8285612a0e565b9150612a578284612a0e565b91508190509392505050565b60008190508160005260206000209050919050565b60006020601f8301049050919050565b600082821b905092915050565b600060088302612ac57fffffffffffffffffffffffffffffffffffffffffffffffffffffffffffffffff82612a88565b612acf8683612a88565b95508019841693508086168417925050509392505050565b6000819050919050565b6000612b0c612b07612b0284612284565b612ae7565b612284565b9050919050565b6000819050919050565b612b2683612af1565b612b3a612b3282612b13565b848454612a95565b825550505050565b600090565b612b4f612b42565b612b5a818484612b1d565b505050565b5b81811015612b7e57612b73600082612b47565b600181019050612b60565b5050565b601f821115612bc357612b9481612a63565b612b9d84612a78565b81016020851015612bac578190505b612bc0612bb885612a78565b830182612b5f565b50505b505050565b600082821c905092915050565b6000612be660001984600802612bc8565b1980831691505092915050565b6000612bff8383612bd5565b9150826002028217905092915050565b612c18826121d2565b67ffffffffffffffff811115612c3157612c306124cf565b5b612c3b82546127e9565b612c46828285612b82565b600060209050601f831160018114612c795760008415612c67578287015190505b612c718582612bf3565b865550612cd9565b601f198416612c8786612a63565b60005b82811015612caf57848901518255600182019150602085019450602081019050612c8a565b86831015612ccc5784890151612cc8601f891682612bd5565b8355505b6001600288020188555050505b505050505050565b6000612cec82612284565b9150612cf783612284565b9250828203905081811115612d0f57612d0e6128a9565b5b92915050565b7f4e487b7100000000000000000000000000000000000000000000000000000000600052603160045260246000fd5b7f4e487b7100000000000000000000000000000000000000000000000000000000600052601260045260246000fdfea26469706673582212203497654b8631f665b348d0a33d1851282f6800f35bc414523a95f3000f8e94bf64736f6c63430008180033",
  "linkReferences": {},
  "deployedLinkReferences": {}
}